:020000040800F2
:1000000000000320F52F000815150008171500083B
:10001000191500081B1500081D1500080000000038
:100020000000000000000000000000001F15000894
:100030002115000800000000231500082515000800
:1000400045300008453000084530000845300008BC
:1000500045300008453000084530000845300008AC
:10006000453000084530000845300008453000089C
:10007000453000084530000845300008453000088C
:10008000453000084530000845300008453000087C
:10009000453000084530000845300008453000086C
:1000A000453000084530000845300008453000085C
:1000B000453000084530000845300008453000084C
:1000C000453000084530000845300008453000083C
:1000D000453000084530000845300008453000082C
:1000E000453000084530000845300008453000081C
:1000F000453000084530000845300008453000080C
:1001000045300008453000084530000845300008FB
:1001100045300008453000084530000845300008EB
:1001200045300008453000084530000845300008DB
:1001300045300008453000084530000845300008CB
:1001400045300008453000084530000845300008BB
:1001500045300008453000084530000845300008AB
:10016000453000084530000845300008453000089B
:100170004530000845300008453000080000000008
:10018000453000084530000845300008453000087B
:10019000453000084530000845300008453000086B
:0C01A000453000084530000845300008DC
:1001B00010B5054C237833B9044B13B10448AFF3A1
:1001C00000800123237010BD70000020000000009B
:1001D0009C3F000808B5034B1BB103490348AFF32C
:1001E000008008BD00000000740000209C3F000853
:1001F00001F0FF01102A2BDB10F0070F08D010F8D8
:10020000013B013A8B422DD010F0070F42B3F6D1DB
:10021000F0B441EA012141EA014122F007047FF0F4
:1002200000070023F0E80256083C85EA010586EA4B
:10023000010685FA47F5A3FA87F586FA47F6A5FA87
:1002400087F68EB9EED1F0BC01F0FF0102F0070293
:1002500032B110F8013B013A83EA010313B1F8D13E
:100260000020704701387047002D06BF354603381F
:10027000073815F0010F07D1013015F4807F02BF58
:10028000013015F4C03F0130F0BC0138704700BFA9
:1002900081F0004102E000BF83F0004330B54FEA37
:1002A00041044FEA430594EA050F08BF90EA020FA4
:1002B0001FBF54EA000C55EA020C7FEA645C7FEA37
:1002C000655C00F0E2804FEA5454D4EB5555B8BF5A
:1002D0006D420CDD2C4480EA020281EA030382EACB
:1002E000000083EA010180EA020281EA0303362D5D
:1002F00088BF30BD11F0004F4FEA01314FF4801C30
:100300004CEA113102D0404261EB410113F0004F41
:100310004FEA03334CEA133302D0524263EB4303F8
:1003200094EA050F00F0A780A4F10104D5F1200E96
:100330000DDB02FA0EFC22FA05F2801841F10001F1
:1003400003FA0EF2801843FA05F359410EE0A5F1C5
:1003500020050EF1200E012A03FA0EFC28BF4CF0F6
:10036000020C43FA05F3C01851EBE37101F00045AC
:1003700007D54FF0000EDCF1000C7EEB00006EEBB9
:100380000101B1F5801F1BD3B1F5001F0CD3490843
:100390005FEA30004FEA3C0C04F101044FEA44529A
:1003A00012F5800F80F09A80BCF1004F08BF5FEA21
:1003B000500C50F1000041EB045141EA050130BD01
:1003C0005FEA4C0C404141EB010111F4801FA4F1A4
:1003D0000104E9D191F0000F04BF01460020B1FAF9
:1003E00081F308BF2033A3F10B03B3F120020CDA31
:1003F0000C3208DD02F1140CC2F10C0201FA0CF00F
:1004000021FA02F10CE002F11402D8BFC2F1200C73
:1004100001FA02F120FA0CFCDCBF41EA0C01904029
:10042000E41AA2BF01EB0451294330BD6FEA040472
:100430001F3C1CDA0C340EDC04F11404C4F120025D
:1004400020FA04F001FA02F340EA030021FA04F36F
:1004500045EA030130BDC4F10C04C4F1200220FAC6
:1004600002F001FA04F340EA0300294630BD21FA04
:1004700004F0294630BD94F0000F83F4801306BFCA
:1004800081F480110134013D4EE77FEA645C18BFBE
:100490007FEA655C29D094EA050F08BF90EA020F55
:1004A00005D054EA000C04BF1946104630BD91EA4D
:1004B000030F1EBF0021002030BD5FEA545C05D150
:1004C0004000494128BF41F0004130BD14F580048F
:1004D0003CBF01F5801130BD01F0004545F0FE4103
:1004E00041F470014FF0000030BD7FEA645C1ABF38
:1004F000194610467FEA655C1CBF0B46024650EA6F
:10050000013406BF52EA033591EA030F41F400219A
:1005100030BD00BF90F0000F04BF0021704730B520
:100520004FF4806404F132044FF000054FF00001F5
:1005300050E700BF90F0000F04BF0021704730B5B6
:100540004FF4806404F1320410F0004548BF40428B
:100550004FF000013EE700BF42004FEAE2014FEAE0
:1005600031014FEA02701FBF12F07F4393F07F4FBB
:1005700081F06051704732F07F4208BF704793F0BE
:100580007F4F04BF41F40021704730B54FF46074D1
:1005900001F0004521F000411CE700BF50EA0102D4
:1005A00008BF704730B54FF000050AE050EA01027D
:1005B00008BF704730B511F0004502D5404261EBED
:1005C00041014FF4806404F132045FEA915C3FF42E
:1005D000D8AE4FF003025FEADC0C18BF03325FEACB
:1005E000DC0C18BF033202EBDC02C2F1200300FA7C
:1005F00003FC20FA02F001FA03FE40EA0E0021FAA1
:1006000002F11444BDE600BF70B54FF0FF0C4CF48E
:10061000E06C1CEA11541DBF1CEA135594EA0C0F40
:1006200095EA0C0F00F0DEF82C4481EA030621EA7B
:100630004C5123EA4C5350EA013518BF52EA0335B6
:1006400041F4801143F4801338D0A0FB02CE4FF068
:100650000005E1FB02E506F00042E0FB03E54FF098
:100660000006E1FB03569CF0000F18BF4EF0010E90
:10067000A4F1FF04B6F5007F64F5407404D25FEA8C
:100680004E0E6D4146EB060642EAC62141EA55513F
:100690004FEAC52040EA5E504FEACE2EB4F1FD0C81
:1006A00088BFBCF5E06F1ED8BEF1004F08BF5FEAFF
:1006B000500E50F1000041EB045170BD06F00046B1
:1006C00046EA010140EA020081EA0301B4EB5C045E
:1006D000C2BFD4EB0C0541EA045170BD41F4801156
:1006E0004FF0000E013C00F3AB8014F1360FDEBF7B
:1006F000002001F0004170BDC4F10004203C35DA57
:100700000C341BDC04F11404C4F1200500FA05F3D9
:1007100020FA04F001FA05F240EA020001F000427A
:1007200021F0004110EBD37021FA04F642EB0601F0
:100730005EEA430E08BF20EAD37070BDC4F10C041A
:10074000C4F1200500FA04F320FA05F001FA04F2DE
:1007500040EA020001F0004110EBD37041F10001CA
:100760005EEA430E08BF20EAD37070BDC4F12005D5
:1007700000FA05F24EEA020E20FA04F301FA05F23D
:1007800043EA020321FA04F001F0004121FA04F2E5
:1007900020EA020000EBD3705EEA430E08BF20EAB5
:1007A000D37070BD94F0000F0FD101F000464000EF
:1007B00041EB010111F4801F08BF013CF7D041EA71
:1007C000060195F0000F18BF704703F00046520075
:1007D00043EB030313F4801F08BF013DF7D043EA46
:1007E0000603704794EA0C0F0CEA135518BF95EAFC
:1007F0000C0F0CD050EA410618BF52EA4306D1D183
:1008000081EA030101F000414FF0000070BD50EAA1
:10081000410606BF1046194652EA430619D094EA2B
:100820000C0F02D150EA013613D195EA0C0F05D115
:1008300052EA03361CBF104619460AD181EA030169
:1008400001F0004141F0FE4141F470014FF0000021
:1008500070BD41F0FE4141F4780170BD70B54FF0BC
:10086000FF0C4CF4E06C1CEA11541DBF1CEA13553C
:1008700094EA0C0F95EA0C0F00F0A7F8A4EB05041E
:1008800081EA030E52EA03354FEA013100F0888015
:100890004FEA03334FF0805545EA131343EA1263DE
:1008A0004FEA022245EA111545EA10654FEA002693
:1008B0000EF000419D4208BF964244F1FD0404F54C
:1008C000407402D25B084FEA3202B61A65EB0305A8
:1008D0005B084FEA32024FF480104FF4002CB6EB65
:1008E000020E75EB030E22BFB61A754640EA0C00E5
:1008F0005B084FEA3202B6EB020E75EB030E22BF25
:10090000B61A754640EA5C005B084FEA3202B6EB65
:10091000020E75EB030E22BFB61A754640EA9C0024
:100920005B084FEA3202B6EB020E75EB030E22BFF4
:10093000B61A754640EADC0055EA060E18D04FEAB2
:10094000051545EA16754FEA06164FEAC30343EA52
:1009500052734FEAC2025FEA1C1CC0D111F4801F1F
:100960000BD141EA00014FF000004FF0004CB6E718
:1009700011F4801F04BF01430020B4F1FD0C88BFB7
:10098000BCF5E06F3FF6AFAEB5EB030C04BFB6EBC2
:10099000020C5FEA500C50F1000041EB045170BDB5
:1009A0000EF0004E4EEA113114EB5C04C2BFD4EBE2
:1009B0000C0541EA045170BD41F480114FF0000E66
:1009C000013C90E645EA060E8DE60CEA135594EAE2
:1009D0000C0F08BF95EA0C0F3FF43BAF94EA0C0FE5
:1009E0000AD150EA01347FF434AF95EA0C0F7FF45A
:1009F00025AF104619462CE795EA0C0F06D152EAAE
:100A000003353FF4FDAE1046194622E750EA410691
:100A100018BF52EA43067FF4C5AE50EA41047FF4A2
:100A20000DAF52EA43057FF4EBAE12E74FEA410205
:100A3000B2F1E04324BFB3F5001CDCF1FE5C0DD93C
:100A400001F0004C4FEAC0024CEA5070B2F1004F86
:100A500040EB830008BF20F00100704711F0804F89
:100A600021D113F13872BCBF01F00040704741F44E
:100A700080114FEA5252C2F11802C2F1200C10FA52
:100A80000CF320FA02F018BF40F001004FEAC12336
:100A90004FEAD32303FA0CFC40EA0C0023FA02F3DA
:100AA0004FEA4303CCE77FEA625307D150EA0133B0
:100AB0001EBF4FF0FE4040F44000704701F0004080
:100AC00040F0FE4040F40000704700BF53B94AB9FF
:100AD000002908BF00281CBF4FF0FF314FF0FF3046
:100AE00000F072B9ADF1080C6DE904CE00F006F823
:100AF000DDF804E0DDE9022304B070472DE9F0479A
:100B0000089E04468846002B4BD18A42154667D979
:100B1000B2FA82F24AB1C2F1200701FA02F320FAD6
:100B200007F7954047EA030894404FEA154E230C17
:100B3000B8FBFEF71FFA85FC0EFB178843EA084353
:100B400007FB0CF1994209D9EB1807F1FF3080F04F
:100B50001B81994240F21881023F2B445B1AA4B2D8
:100B6000B3FBFEF00EFB103344EA034400FB0CFC25
:100B7000A44509D92C1900F1FF3380F00781A44561
:100B800040F2048102382C4440EA0740A4EB0C04F4
:100B900000271EB1D4400023C6E900433946BDE812
:100BA000F0878B4209D9002E00F0EB800027C6E9C0
:100BB000000138463946BDE8F087B3FA83F7002FC5
:100BC00047D18B4202D3824200F2FA80841A61EB51
:100BD000030301209846002EE0D0C6E90048DDE777
:100BE00002B9FFDEB2FA82F2002A40F08F80491B80
:100BF0004FEA154E1FFA85F80127B1FBFEFC230CC6
:100C00000EFB1C1143EA014308FB0CF1994207D982
:100C1000EB180CF1FF3002D2994200F2CD808446ED
:100C2000591AA3B2B1FBFEF00EFB101443EA0444C0
:100C300008FB00F8A04507D92C1900F1FF3302D2B8
:100C4000A04500F2B6801846A4EB080440EA0C4028
:100C50009FE7C7F1200CBB4022FA0CFE4EEA030EC0
:100C600001FA07F420FA0CF521FA0CF34FEA1E48BA
:100C70002543B3FBF8F92C0C08FB19331FFA8EFA45
:100C800044EA034309FB0AF49C4202FA07F200FA21
:100C900007F10BD91EEB030309F1FF3080F08780C9
:100CA0009C4240F28480A9F1020973441B1BADB23F
:100CB000B3FBF8F008FB103345EA034400FB0AFAE3
:100CC000A24508D91EEB040400F1FF336BD2A24504
:100CD00069D90238744440EA0940A0FB0289A4EBB8
:100CE0000A044C45C2464B4654D351D0002E69D01D
:100CF000B1EB0A0564EB030404FA0CFCFD40FC4074
:100D00004CEA0505C6E90054002747E7C2F1200375
:100D100020FA03F7954001FA02F021FA03F34FEAB3
:100D2000154E3843010CB3FBFEF71FFA85F80EFB96
:100D3000173341EA034107FB08F38B4204FA02F43C
:100D400007D9691807F1FF3C2FD28B422DD9023FFA
:100D50002944CB1A81B2B3FBFEF00EFB103341EAFB
:100D6000034100FB08F38B4207D9691800F1FF3CEF
:100D700017D28B4215D902382944C91A40EA0747CD
:100D80003BE73746304609E70746E7E61846FBE605
:100D90004145ABD2B8EB020A69EB0E0201381346AB
:100DA000A4E76046E9E7184695E76746D1E781463C
:100DB0007CE702382C4447E7ACF1020C2B442FE7C8
:100DC000384608E73746E9E6704700BF2DE9F04F9F
:100DD0008FB0002409940A940B940C940D94019400
:100DE000AB4B1A6B42F004021A631A6B02F0040256
:100DF0000192019A02941A6B42F020021A631A6B54
:100E000002F020020292029A03941A6B42F08002CE
:100E10001A631A6B02F080020392039A04941A6B0D
:100E200042F001021A631A6B02F001020492049A62
:100E300005941A6B42F002021A631A6B02F0020266
:100E40000592059A06941A6B42F040021A631A6BD7
:100E500002F040020692069A07941A6B42F01002C2
:100E60001A631A6B02F010020792079A08941A6B21
:100E700042F008021A631B6B03F008030893089BF7
:100E800022461621834801F087FFDFF81CA2224684
:100E90008021504601F080FF22464FF440517E48A9
:100EA00001F07AFF22464FF4C0417C4801F074FF04
:100EB0004FF63F03099302250A950B9403270C97DD
:100EC0000C260D96DFF8E49109A9484601F074FE5E
:100ED0004FF4607309930A950B940C9405230D93BA
:100EE00009A9484601F068FE4FF4806309930A950A
:100EF0000B940C944FF00E08CDF8348009A94846A5
:100F000001F05AFE4FF00109CDF824900A950B9498
:100F10000C970D9609A95F4801F04EFE1623099320
:100F2000CDF828900B940C9409A95A4801F044FE7E
:100F300048F207030993DFF878B1CDF828B00B9495
:100F400009A9504601F038FE41F6580309930A9565
:100F50000B940C94CDF8348009A9504601F02CFE76
:100F600080230993CDF828900B940C9409A950463E
:100F700001F022FE20230993CDF828B00B9409A993
:100F8000444801F019FE09970A950B940C944FF010
:100F9000090ACDF834A009A9414801F00DFE4FF02F
:100FA000040BCDF824B00A940B9409A93C4801F035
:100FB00003FE48F2331309930A950B940C970D9690
:100FC00009A9364801F0F8FD4FF6837309930A9595
:100FD0000B940C970D9609A9324801F0EDFD4FF4E2
:100FE000706309930A950B940C94CDF8348009A989
:100FF0002B4801F0E1FD4FF4504309930A950B94FF
:101000000C940D9609A9264801F0D6FD4FF4005323
:1010100009930A940B9409A9214801F0CDFD4CF2E3
:10102000037309930A950B940C970D9609A91A4816
:1010300001F0C2FD4FF4006309930A940B9409A9CF
:10104000154801F0B9FD4FF440530993CDF82890AD
:101050000B940C9409A9104801F0AEFDCDF824B012
:101060000A940B9409A90D4801F0A6FD4FF40C63F6
:1010700009930A950B940C94CDF8348009A907487C
:1010800001F09AFD4FF4986309930A9512E000BFAE
:101090000038024000080240000C024000180240E4
:1010A0000004024000100240000002400014024010
:1010B000000012100B940C94CDF8348009A9194843
:1010C00001F07AFD482309930A950B940C94CDF80E
:1010D000348009A9144801F06FFD4FF4A05309931F
:1010E0000A950B940C94CDF834A009A90F4801F08F
:1010F00063FD4FF4C0430993CDF828900B940C94F2
:1011000009A90A4801F058FD602309930A950B9438
:101110000C970D9609A9064801F04EFD0FB0BDE8E9
:10112000F08F00BF00080240000C0240001802408F
:101130000004024008B50848084B03604FF4E1334F
:10114000436000238360C36003610C2242618361BA
:10115000C36101F088F908BDEC00002000100140D7
:1011600038B50D4C0D4B23600D4B63600025A56019
:10117000E5604FF4804323616561A561E561256207
:10118000204600F0A1FC2946204600F05DFF2946DC
:10119000204600F07BFF38BD98000020005C004036
:1011A000A086010070B5022818DC0C461646002502
:1011B00001E001350134237893B1B54210DA0A23F6
:1011C00001222146074801F07DF923780A2BF0D14E
:1011D00002220549034801F075F9EAE74FF0FF35AF
:1011E000284670BDEC000020B43F000830B595B033
:1011F0003022002108A801F04BFF0024039404943E
:1012000005940694079401941C4B1A6C42F080528A
:101210001A641B6C03F080530193019B0294184BDA
:101220001A6842F440421A601B6803F44043029378
:10123000029B0225089501230B9310230C930E9516
:101240000F9408231093B42311931295072313933B
:1012500008A801F0A7F901F0A5FD0F230393049559
:1012600005944FF4A05306934FF480530793052140
:1012700003A801F0CFFB15B030BD00BF003802401D
:101280000070004070B582B0BDEEC07AF8EEC77A4B
:1012900030EE670AF2EE047A60EE277AFDEEE77A26
:1012A00017EE902A194880FB0231D317C3EBA10334
:1012B00003EB83035D00DFED167A60EE277AFDEE27
:1012C000E77A17EE903A80FB0314D917C1EBA4011B
:1012D00001EB81014E00DFED0F7A20EE270AFDEED3
:1012E000C07A17EE901A80FB0104C817C0EBA40067
:1012F00000EB80004400081B00909B1B521B17EE64
:10130000101A054801F0CCFE02B070BD6766666633
:101310000000C84200007A44DC3F000800B583B0FA
:101320000023019301F000FEFFF760FFFFF74EFD81
:10133000FFF700FFFFF714FF012001F021FE00F08E
:10134000BCF80DF10301002000F04CF800F060F84B
:101350000A2001F015FE00F0B7F802AD25ED010AF4
:101360000E4C0A2304220E49204601F0ABF80A2352
:1013700004222946204601F0A5F80A23042209493F
:10138000204601F09FF8084801F0FEFE9DED010A9D
:10139000FFF778FF054801F0F7FED9E7EC000020E1
:1013A000B83F0008BC3F0008C03F0008D03F00081D
:1013B00010B586B002468DF8140006AC04F8031D83
:1013C0000A230293012301930094AE21044800F004
:1013D00009FC10B1002006B010BD0120FBE700BFE2
:1013E0009800002000B585B00A23029301230193E1
:1013F00000910246AF21054800F0B2FC18B1002070
:1014000005B05DF804FB0120FAE700BF980000205A
:1014100008B5C0210220FFF7CBFF034608B91846E4
:1014200008BD02210320FFF7C3FF03460028F6D0C2
:1014300000210420FFF7BCFF03460028EFD0002165
:101440000520FFF7B5FF03460028E8D0002106205D
:10145000FFF7AEFF03460028E1D00F210820FFF779
:10146000A7FF03460028DAD003210920FFF7A0FFD9
:1014700003460028D3D027210A20FFF799FF03460F
:101480000028CCD024210C20FFF792FF034600282F
:10149000C5D024210D20FFF78BFF03460028BED0C6
:1014A0007F211020FFF784FF03460028B7D00121D9
:1014B0002120FFF77DFF0346B1E708B54021092051
:1014C000FFF776FF08BD000030B583B00DF10701CE
:1014D0001F20FFF787FF0DF106012020FFF782FF95
:1014E0009DF80600FFF726F80022094BFFF78CF85D
:1014F00004460D469DF80700FFF71CF822462B46D0
:10150000FEF7CCFEFFF792FA00EE100A03B030BDF2
:101510000000B03F7047FEE7FEE7FEE7FEE77047DA
:101520007047704708B501F019FD08BD00B583B0DC
:10153000002100910C4B5A6C42F480425A645A6C60
:1015400002F480420092009A01911A6C42F080529B
:101550001A641B6C03F080530193019B072001F078
:1015600061FC03B05DF804FB003802402DE9F04156
:1015700088B00023039304930593069307930268AE
:10158000204B9A4202D008B0BDE8F08100250095BA
:101590001D4C236B43F004032363236B03F004030C
:1015A0000093009B0195236B43F001032363236B9E
:1015B00003F001030193019B4FF4007303934FF079
:1015C0001208CDF81080012705970426079603A975
:1015D0000E4801F0F1FA4FF480730393CDF81080B8
:1015E00005970695079603A9094801F0E5FA0295C3
:1015F000236C43F400032364236C03F4000302937D
:10160000029BC0E7005C0040003802400008024036
:101610000000024000B589B00023039304930593B2
:1016200006930793026803F1804303F588339A42D7
:1016300002D009B05DF804FB0021019103F5943359
:101640005A6C42F010025A645A6C02F01002019275
:10165000019A02911A6B42F001021A631B6B03F0AC
:1016600001030293029B4FF4C0630393022304938C
:1016700001230593032306930723079303A9024835
:1016800001F09AFAD5E700BF0000024003685A69EA
:1016900012F4806F0DD06FF480625A6104230364EA
:1016A00000230363202280F83D2080F83C30012095
:1016B000704700207047F8B506460C4617461D4691
:1016C0001EE02DB101F056FC069BC01AA84217D9A6
:1016D00000233363202286F83D2086F83E3086F8CA
:1016E0003C3003201AE033685B6924EA03039BB2B1
:1016F000B3FA83F35B099F420FD1B5F1FF3FE0D10D
:10170000C4F30743012BEED033689B6924EA03033B
:101710009BB2B3FA83F35B09EDE70020F8BDF8B59F
:1017200004460D4616461F4632E01A6842F400721F
:101730001A6023686FF480625A61042323640023D3
:101740002363202284F83D2084F83C3001202DE0E2
:1017500026B101F00FFCC01BB04219D9002323634E
:10176000202284F83D2084F83C3003201EE02368CA
:101770005B6925EA03039BB2003318BF0123A3B1C1
:1017800023685A6912F4806FCFD1B6F1FF3FDFD1E1
:10179000C5F30743012BEAD023689B6925EA0303BD
:1017A0009BB2003318BF0123E9E70020F8BD70B5F4
:1017B00004460D46164623685B6913F0800F19D165
:1017C0002046FFF763FFB8B9B5F1FF3FF3D025B16D
:1017D00001F0D0FB801BA842EDD9236C43F020031D
:1017E000236400232363202284F83D2084F83C30C6
:1017F000032000E0002070BD0120FCE72DE9F0414E
:1018000084B004460E46174698460B9D026813683E
:1018100043F48073136000950A9B00224FF001117E
:10182000FFF749FF002847D1236806F0FE061E6136
:101830002B460A9A26492046FFF771FF20B1236CF8
:10184000042B3ED1012338E00023039323685A6917
:1018500003929B690393039B2A460A992046FFF74C
:10186000A6FF034648B1236C042B2CD122681368D1
:1018700043F40073136001231FE0B8F1010F13D08C
:1018800023683A0A1A612A460A992046FFF78FFF11
:10189000034668B1236C042B17D12268136843F404
:1018A00000731360012308E02268FFB2176104E0AF
:1018B0002268FFB2176100E00323184604B0BDE8B8
:1018C000F0810323F9E70323F7E70323F5E700BFDC
:1018D000020001002DE9F04184B004460E4617468F
:1018E00098460B9D0268136843F480631360026896
:1018F000136843F48073136000950A9B00224FF035
:101900000111FFF7D8FE002874D1F6B2236806F063
:10191000FE021A612B460A9A3F492046FFF7FFFE56
:1019200020B1236C042B6AD1012364E000230393CC
:1019300023685A6903929B690393039B2A460A9979
:101940002046FFF734FF48B1236C042B59D122689D
:10195000136843F40073136001234CE0B8F1010FE6
:1019600012D12368FFB21F612A460A992046FFF769
:101970001EFF00B3236C042B47D12268136843F485
:1019800000731360012336E023683A0A1A612A467D
:101990000A992046FFF70BFF48B1236C042B32D184
:1019A0002268136843F400731360012323E0236863
:1019B000FFB21F61D8E72268136843F48073136095
:1019C00000950A9B00224FF001112046FFF773FE9D
:1019D000E8B9236846F001061E612B460A9A0E49B3
:1019E0002046FFF79CFE034628B1236C042B10D140
:1019F000012300E00323184604B0BDE8F08103236F
:101A0000F9E70323F7E70323F5E70323F3E70323CA
:101A1000F1E70323EFE700BF0200010070B50446C1
:101A20000D46164623685B6913F0040F19D1204652
:101A3000FFF72CFEB8B9B5F1FF3FF3D025B101F0A7
:101A400099FA801BA842EDD9236C43F0200323644C
:101A500000232363202284F83D2084F83C300320B7
:101A600000E0002070BD0120FCE770B505460C4683
:101A700016462B685A6912F0400F22D15A6912F0AB
:101A8000100F11D124B101F075FA801BA042F0D9DA
:101A90002B6C43F020032B64202385F83D3000237A
:101AA00085F83C30032070BD6FF010025A610023AE
:101AB0002B642B63202285F83D2085F83C300120E3
:101AC000F1E70020EFE70000002800F0828010B569
:101AD000044690F83D30002B41D0242384F83D305B
:101AE0002268136823F00103136001F045F83A4BB4
:101AF000A3FB00239B0C226853606168374A914224
:101B000032D80133226813626368344A934235D86D
:101B10005B00B0FBF3F0C0F30B03032B00D80420F1
:101B20002368D861E369216A22680B431360236943
:101B3000E16822680B4393606369A16922680B43E3
:101B4000D3602268136843F001031360002020640F
:101B5000202384F83D30206384F83E0010BD80F8D7
:101B60003C30FFF703FDB8E74FF4967202FB03F336
:101B70001B4AA2FB03239B090133C3E7A16889B970
:101B800003EB4302B0FBF2F2C2F30B02B2FA82F2B1
:101B90005209E2B991B903EB4303B0FBF3F040F40F
:101BA0000040BDE703EB830202EB8202B0FBF2F2DE
:101BB000C2F30B02B2FA82F25209EAE703EB8303A3
:101BC00003EB8303B0FBF3F040F44040A8E70120AF
:101BD000A6E70120704700BF83DE1B43A0860100FB
:101BE000D34D62102DE9F04182B004460E461746EF
:101BF000984601F0BFF994F83D30DBB2202B04D0B9
:101C00000223184602B0BDE8F08105460090192372
:101C1000012251492046FFF74EFD002840F09380F5
:101C200094F83C30012B00F09080012384F83C3084
:101C300023681A6812F0010F03D11A6842F00102FA
:101C40001A602268136823F400631360212384F868
:101C50003D30402384F83E3000232364089B6362B8
:101C6000BDF8243063853D4BE362638D2385019588
:101C70000A9B009343463A4631462046FFF7BEFD95
:101C8000B0B1236C042B04D1002384F83C30012331
:101C9000B7E7002384F83C300323B2E7236C042B1E
:101CA00055D12268136843F4007313600123A8E739
:101CB000238D002B28D02A460A992046FFF777FD6E
:101CC0000028EBD1636A5A1C626222681B78136198
:101CD000238D013B9BB22385628D013A92B26285CE
:101CE0002268516911F0040FE2D0002BE0D0636A42
:101CF000591C61621B781361238D013B2385638D21
:101D0000013B9BB26385D3E72A460A992046FFF739
:101D100085FE034648B1236C042B1AD12268136850
:101D200043F40073136001236BE721680A6842F4EF
:101D300000720A60202284F83D20002284F83E20B0
:101D400084F83C205DE702235BE7022359E7032385
:101D500057E7032355E700BF020010000000FFFF14
:101D60002DE9F04186B004460E461746984601F02C
:101D700001F994F83D30DBB2202B04D00226304626
:101D800006B0BDE8F08105460090192301228B4979
:101D90002046FFF790FC002840F04B8194F83C303F
:101DA000012B00F04881012384F83C3023681A6835
:101DB00012F0010F03D11A6842F001021A60226882
:101DC000136823F400631360222384F83D3040231A
:101DD00084F83E30002323640C9B6362BDF83430EA
:101DE0006385774BE362638D238501950E9B00939A
:101DF00043463A4631462046FFF76CFD064660B141
:101E0000236C042B04D1002384F83C300126B6E770
:101E1000002384F83C300326B1E7238D5BB902939D
:101E200023685A6902929A690292029A1A6842F4E5
:101E300000721A6075E0012B0AD0022B1AD0002321
:101E4000059323685A6905929B690593059B68E091
:101E50002268136823F480631360002303932368CC
:101E60005A6903929A690392039A1A6842F40072BB
:101E70001A6056E02268136823F4806313602268B6
:101E8000136843F4006313600023049323685A69C2
:101E900004929B690493049B43E02A460E992046D2
:101EA000FFF7E3FD68B923681A69636A591C616228
:101EB0001A70238D013B2385638D013B9BB26385A3
:101EC0002FE0236C202B01D0012658E7032656E78C
:101ED00000950E9B00223B492046FFF7ECFB0028B3
:101EE00040F0AB802268136843F4007313602368EA
:101EF0001A69636A591C61621A70238D013B23853C
:101F0000638D013B9BB2638523681A69636A591C20
:101F100061621A70238D013B2385638D013B9BB267
:101F20006385238D002B7BD0032B4DD8012BB4D0A0
:101F3000022BCDD000950E9B002222492046FFF7B0
:101F4000BAFB00287BD12268136823F480631360F6
:101F500023681A69636A591C61621A70238D013BF8
:101F60002385638D013B9BB2638500950E9B002208
:101F700014492046FFF79FFB002862D122681368AE
:101F800043F40073136023681A69636A591C616221
:101F90001A70238D013B2385638D013B9BB26385C2
:101FA00023681A69636A591C61621A70238D013BA8
:101FB0002385638D013B9BB26385B2E7020010006D
:101FC0000000FFFF040001002A460E992046FFF79B
:101FD0004CFDF0B923681A69636A591C61621A7072
:101FE000238D013B2385638D013B9BB26385236871
:101FF0005A6912F0040F94D01A69636A591C61621D
:102000001A70238D013B2385638D013B9BB2638551
:1020100087E7236C202B01D00126B0E60326AEE62D
:10202000202384F83D30002384F83E3084F83C308F
:10203000A5E60226A3E60226A1E603269FE60326DE
:102040009DE603269BE600BF90F83D30DBB2202BD7
:102050001AD1242380F83D300268136823F001036D
:1020600013600268536A23F0100353620268536AD4
:10207000194351620268136843F00103136020237F
:1020800080F83D30002070470220704790F83D30C6
:10209000DBB2202B19D1242380F83D30026813686D
:1020A00023F0010313600268536A9BB223F00F030D
:1020B000194389B251620268136843F00103136047
:1020C000202380F83D300020704702207047000038
:1020D0002DE9F843044601680A6922F44052C368B6
:1020E00013430B610168CA6822F4164222F00C0205
:1020F00083680069034360690343E0690343134352
:10210000CB6021684A6922F44072A36913434B6192
:10211000E369B3F5004F60D02368B84A934200F0FA
:10212000148102F58062934200F00F8100F024FDDB
:1021300000EB800000EB80006568AD00B0FBF5F5BA
:10214000AF4FA7FB05356D092E0100F015FD00EB23
:10215000800000EB80006568AD00B0FBF5F900F091
:102160000BFD00EB800000EB80006568AD00B0FB6C
:10217000F5F5A7FB05356D094FF0640808FB1595CB
:102180002D013235A7FB05356D0905F0F005354405
:1021900000F0F2FC00EB800000EB80006668B60007
:1021A000B0FBF6F600F0E8FC00EB800000EB8000EE
:1021B00063689B00B0FBF3F0A7FB0030400908FB0D
:1021C00010684FEA081808F13208A7FB0837C7F370
:1021D000431723682F449F600DE12368874A934289
:1021E0005BD002F58062934257D000F0C5FC00EB53
:1021F000800000EB800065686D00B0FBF5F5804F56
:10220000A7FB05356D092E0100F0B6FC00EB800040
:1022100000EB800065686D00B0FBF5F900F0ACFCE8
:1022200000EB800000EB800065686D00B0FBF5F509
:10223000A7FB05356D094FF0640808FB1595ED0007
:102240003235A7FB05356D096D0005F4F875354489
:1022500000F092FC00EB800000EB800066687600E6
:10226000B0FBF6F600F088FC00EB800000EB80008D
:1022700063685B00B0FBF3F3A7FB03235B0908FB78
:1022800013684FEAC80808F13208A7FB0837C7F3FC
:10229000421723682F449F60ADE000F07DFC00EB07
:1022A000800000EB800065686D00B0FBF5F5544FD1
:1022B000A7FB05356D092E0100F06EFC00EB8000D8
:1022C00000EB800065686D00B0FBF5F900F064FC80
:1022D00000EB800000EB800065686D00B0FBF5F559
:1022E000A7FB05356D094FF0640808FB1595ED0057
:1022F0003235A7FB05356D096D0005F4F8753544D9
:1023000000F04AFC00EB800000EB8000666876007D
:10231000B0FBF6F600F040FC00EB800000EB800024
:1023200063685B00B0FBF3F3A7FB03235B0908FBC7
:1023300013684FEAC80808F13208A7FB0837C7F34B
:10234000421723682F449F6055E000F025FC00EB06
:10235000800000EB80006568AD00B0FBF5F5284F0C
:10236000A7FB05356D092E0100F016FC00EB80007F
:1023700000EB80006568AD00B0FBF5F900F00CFCE7
:1023800000EB800000EB80006568AD00B0FBF5F568
:10239000A7FB05356D094FF0640808FB15952D0165
:1023A0003235A7FB05356D0905F0F005354400F021
:1023B000F3FB00EB800000EB80006668B600B0FB2A
:1023C000F6F600F0E9FB00EB800000EB80006368AC
:1023D0009B00B0FBF3F0A7FB0030400908FB10683E
:1023E0004FEA081808F13208A7FB0837C7F343176C
:1023F00023682F449F60BDE8F88300BF00100140B0
:102400001F85EB512DE9F04105460F4616469846CB
:10241000069C2B681B6837EA03030CBF01230023CB
:10242000B3421DD1B4F1FF3FF3D02CB100F0A2FDB7
:10243000A0EB0800A042ECD92A68D36823F4D0733B
:10244000D3602A68536923F001035361202385F880
:10245000393085F83A30002385F83830032000E021
:102460000020BDE8F08158B310B5044690F839302B
:102470000BB3242384F839302268D36823F4005343
:10248000D3602046FFF724FE2268136923F49043AB
:1024900013612268536923F02A0353612268D368C9
:1024A00043F40053D3600020E063202384F83930E4
:1024B00084F83A3010BD80F83830FFF7ABF8D8E731
:1024C000012070472DE9F04182B01E4690F8393066
:1024D000DBB2202B55D104460D469046002955D03D
:1024E000002A55D090F83830012B53D0012380F8C2
:1024F00038300023C363212380F8393000F03AFDDF
:102500000746A4F82480A4F8268010E000963B46F5
:10251000002280212046FFF775FF00283CD12B8840
:102520002268C3F3080353602369C3B90235E38CFF
:102530009BB2B3B1E38C013B9BB2E384A368B3F5D8
:10254000805FE3D000963B46002280212046FFF7C3
:1025500059FF18BB2A7823685A600135E7E701352F
:10256000E5E700963B46002240212046FFF74AFF60
:102570000346A8B9202284F83920002284F83820A4
:1025800000E00223184602B0BDE8F0810123F9E71C
:102590000123F7E70223F5E70323F3E70323F1E73A
:1025A0000323EFE7002800F0BB8170B582B004463A
:1025B000036813F0010F3BD0A74B9B6803F00C039B
:1025C000042B2CD0A44B9B6803F00C03082B21D0C8
:1025D0006368B3F5803F4FD0B3F5A02F52D09E4B28
:1025E0001A6822F480321A601A6822F480221A6073
:1025F0006368002B50D000F0BDFC0546964B1B686D
:1026000013F4003F14D100F0B5FC401B6428F5D949
:1026100003208AE1904B5B6813F4800FD8D08E4B77
:102620001B6813F4003F03D06368002B00F07A812D
:10263000236813F0020F55D0874B9B6813F00C0FE3
:102640003ED0854B9B6803F00C03082B33D0E36826
:10265000002B68D0814B01221A6000F08BFC0546EC
:102660007D4B1B6813F0020F54D100F083FC401B1C
:102670000228F5D9032058E1774A136843F48033E0
:102680001360B5E7744B1A6842F480221A601A6826
:1026900042F480321A60ABE700F06CFC05466E4BEA
:1026A0001B6813F4003FC3D000F064FC401B642897
:1026B000F5D9032039E1684B5B6813F4800FC6D16C
:1026C000654B1B6813F0020F04D0E368012B01D0A7
:1026D00001202AE1604A136823F0F803216943EAE4
:1026E000C1031360236813F0080F40D0636963B31C
:1026F0005B4B01221A6000F03DFC0546564B5B6FB8
:1027000013F0020F33D100F035FC401B0228F5D93D
:1027100003200AE1504A136823F0F803216943EAD1
:10272000C1031360DEE74D4B00221A6000F022FC6B
:102730000546494B1B6813F0020FD3D000F01AFC7A
:10274000401B0228F5D90320EFE0454B00221A6018
:1027500000F010FC0546404B5B6F13F0020F06D0F3
:1027600000F008FC401B0228F5D90320DDE02368B7
:1027700013F0040F79D0384B1B6C13F0805F33D10A
:1027800000230193344B1A6C42F080521A641B6C84
:1027900003F080530193019B0125324B1B6813F416
:1027A000807F23D0A368012B34D0052B38D02A4B4F
:1027B0001A6F22F001021A671A6F22F004021A67D8
:1027C000A368002B36D000F0D5FB0646224B1B6FCA
:1027D00013F0020F48D100F0CDFB801B41F288338B
:1027E0009842F3D90320A0E00025D6E71D4A1368DC
:1027F00043F48073136000F0BDFB0646194B1B6861
:1028000013F4807FCED100F0B5FB801B0228F5D9F0
:1028100003208AE0104A136F43F001031367CFE7E8
:102820000D4B1A6F42F004021A671A6F42F0010250
:102830001A67C5E700F09EFB0646074B1B6F13F0B7
:10284000020F11D000F096FB801B41F288339842B2
:10285000F3D9032069E000BF00380240000047427E
:10286000800E474200700040E5B9A369002B5BD0A1
:10287000304A926802F00C02082A58D0022B17D076
:102880002D4B00221A6000F075FB0446294B1B6893
:1028900013F0007F42D000F06DFB001B0228F5D939
:1028A000032042E0234A136C23F080531364DCE7D7
:1028B000214B00221A6000F05DFB05461D4B1B6892
:1028C00013F0007F06D000F055FB401B0228F5D91D
:1028D00003202AE0E369226A1343626A43EA82130F
:1028E000A26A5208013A43EA0243E26A43EA0263F7
:1028F000104A5360104B01221A6000F03BFB044663
:102900000C4B1B6813F0007F06D100F033FB001B5B
:102910000228F5D9032008E0002006E0002004E0AA
:1029200001207047012000E0002002B070BD0120AE
:10293000FBE700BF0038024060004742324B9B6813
:1029400003F00C03042B5CD0082B01D02F487047F8
:102950002DE9F04B2C4B5A6802F03F025B6813F4F0
:10296000800F2BD0284B5B68C3F388131E460027CB
:102970005C010025E41A65EB0705A90141EA9461B1
:10298000A001001B61EB0501CB0043EA5073C400BA
:10299000A01943EB07014B0243EAD05344022046FF
:1029A00019460023FEF792F8174B5B68C3F3014307
:1029B00001335B00B0FBF3F0BDE8F08B124B5B68BA
:1029C000C3F388131E4600275C010025E41A65EB5B
:1029D0000705A90141EA9461A001001B61EB050113
:1029E000CB0043EA5073C400A01943EB07018B02EC
:1029F00043EA90538402204619460023FEF766F806
:102A0000D2E70348704700BF003802400024F400BA
:102A100000127A00002800F09D8070B504464F4BEC
:102A20001B6803F00F038B4209D2CBB24B4A1370E1
:102A3000136803F00F038B4201D0012070BD23689F
:102A400013F0020F17D013F0040F04D0444A936818
:102A500043F4E0539360236813F0080F04D0404A16
:102A6000936843F4604393603D4A936823F0F00316
:102A7000A068034393600D46236813F0010F32D022
:102A80006368012B21D09A1E012A25D9344A126885
:102A900012F0020F60D032498A6822F00302134319
:102AA0008B6000F067FA06462D4B9B6803F00C0321
:102AB0006268B3EB820F16D000F05CFA801B41F223
:102AC00088339842F0D90320B8E7254A126812F4F7
:102AD000003FE0D10120B1E7214A126812F0007FE7
:102AE000D9D10120AAE71D4B1B6803F00F03AB42AD
:102AF00009D9EAB2194B1A701B6803F00F03AB42F5
:102B000001D001209AE7236813F0040F06D0144A7D
:102B1000936823F4E053E1680B439360236813F058
:102B2000080F07D00E4A936823F46043216943EAF3
:102B3000C1039360FFF702FF094B9B68C3F30313C4
:102B4000084AD35CD840084B1860002000F0C6F952
:102B5000002073E70120704701206FE7003C02402E
:102B600000380240E83F000808000020014B1868C8
:102B7000704700BF0800002008B5FFF7F7FF044BBF
:102B80009B68C3F38223034AD35CD84008BD00BFCF
:102B900000380240F83F000808B5FFF7E7FF044B94
:102BA0009B68C3F34233034AD35CD84008BD00BFDF
:102BB00000380240F83F000800230F2B00F2E380AA
:102BC000F0B482B039E0092200E00022B2403A437A
:102BD00002346D4E46F824206C4A1468EA4302EA37
:102BE00004064F6817F4803F01D045EA0406674C9D
:102BF0002660646802EA04064F6817F4003F01D0BB
:102C000045EA0406614C6660A46802EA04064F685F
:102C100017F4801F01D045EA04065C4CA660E46806
:102C200022404E6816F4001F01D045EA0402574CBA
:102C3000E26001330F2B00F2A38001229A400C685E
:102C400004EA0205AA42F4D14C68022C01D0122CED
:102C500010D1DE08083650F826C003F00704A7009C
:102C60000F24BC402CEA040C0C69BC4044EA0C0460
:102C700040F8264004685F000326BE40F64306EA9B
:102C8000040C4C6804F00304BC4044EA0C040460E7
:102C90004C6804F1FF3CBCF1010F03D9112C01D0A9
:102CA000122C10D1846806EA040CCC68BC4044EABB
:102CB0000C048460446824EA02024C68C4F30014E3
:102CC0009C4014434460C26816408A68BA4032434C
:102CD000C2604A6812F0805FABD0002201922C4A99
:102CE000546C44F480445464526C02F48042019267
:102CF000019A9C08A61C244A52F8267003F003028D
:102D000096000F22B24027EA0207224A90423FF47F
:102D10005CAF02F58062904222D002F58062904260
:102D200020D002F5806290421ED002F5806290426F
:102D30001CD002F5806290421AD002F58062904267
:102D400018D002F58062904216D002F5806290425F
:102D500014D002F5806290423FF435AF0A2235E785
:102D6000012233E7022231E703222FE704222DE775
:102D700005222BE7062229E7072227E7082225E775
:102D800002B0F0BC7047704700380140003C014081
:102D9000003802400000024012B909048161704706
:102DA0008161704710B582B000230193194B1A6CF2
:102DB00042F080521A641B6C03F080530193019B14
:102DC000154B01221A6000F0D5F80446134B5B68DE
:102DD00013F4803F08D100F0CDF8001BB0F57A7FE6
:102DE000F4D9032002B010BD0D4B01221A6000F08F
:102DF000C1F80446094B5B6813F4003F07D100F0AB
:102E0000B9F8001BB0F57A7FF4D90320EAE7002077
:102E1000E8E700BF0038024040000E42007000406A
:102E200044000E42074AD36823F4E0631B041B0CE2
:102E3000000200F4E060184340F0BF6040F400304E
:102E4000D060704700ED00E030B4174BDB68C3F38F
:102E50000223C3F10704042C28BF04241D1D062DE2
:102E600018D9033B4FF0FF3505FA04F421EA0401B9
:102E7000994005FA03F322EA0303194300280BDB08
:102E80000901C9B200F1604000F5614080F800130B
:102E900030BC70470023E5E700F00F000901C9B21C
:102EA000024B1954F4E700BF00ED00E014ED00E020
:102EB0000138B0F1807F0AD2064B5860064AF021F3
:102EC00082F823100020986007221A6070470120C2
:102ED000704700BF10E000E000ED00E010B50446D0
:102EE0000E4B18784FF47A73B3FBF0F30C4A10686A
:102EF000B0FBF3F0FFF7DCFF68B90F2C01D901201C
:102F00000AE0002221464FF0FF30FFF79DFF054BFE
:102F10001C60002000E0012010BD00BF0000002068
:102F2000080000200400002008B50B4B1A6842F48A
:102F300000721A601A6842F480621A601A6842F4D9
:102F400080721A600320FFF76DFF0020FFF7C6FFB5
:102F5000FEF7ECFA002008BD003C0240034A11686D
:102F6000034B1B780B441360704700BF2C010020FB
:102F700000000020014B1868704700BF2C010020A2
:102F800038B50446FFF7F6FF0546B4F1FF3F02D01F
:102F9000044B1B781C44FFF7EDFF401BA042FAD303
:102FA00038BD00BF000000200F49D1F8883043F43D
:102FB0007003C1F888300D4B1A6842F001021A60A4
:102FC000002098601A6822F0847222F480321A601D
:102FD000074A5A601A6822F480221A60D8604FF0BB
:102FE00000638B60704700BF00ED00E000380240D6
:102FF00010300024DFF834D0002103E00C4B5B5884
:10300000435004310B480C4B42189A42F6D30B4AFA
:1030100002E0002342F8043B094B9A42F9D3FFF740
:10302000C3FF00F011F8FEF779F9704700000320A4
:10303000A840000800000020700000207000002060
:1030400034010020FEE7000070B50D4E0D4CA41BAE
:10305000A4100025A54209D10B4E0C4C00F09EFF98
:10306000A41BA4100025A54205D170BD56F825303B
:1030700098470135EEE756F8253098470135F2E7D5
:10308000A0400008A0400008A0400008A44000089C
:1030900002440346934200D1704703F8011BF9E74D
:1030A0000FB40A4B13B51C6824B1A36913B92046A9
:1030B00000F022FA05AB049AA1680193204600F0C3
:1030C000DBFB02B0BDE8104004B070470C000020EC
:1030D00070B50E46054618B183690BB900F00CFABD
:1030E000AB69AC6813B9284600F006FA234B9C4242
:1030F00017D16C68A3891B071DD52369DBB1013E7D
:10310000A36816F8011F013BA360E9B9002B2EDA72
:1031100022460A21284600F03FF8013011D00A204B
:1031200011E0174B9C4201D1AC68E3E7154B9C4280
:1031300008BFEC68DEE72146284600F07FF800284B
:10314000DDD04FF0FF3070BD002B04DAA2699A4247
:1031500006DC0A2904D023685A1C22601970CFE7C4
:103160002246284600F018F80130C9D1E9E7236863
:103170000A205A1C22601870E5E700BF24400008AE
:103180004440000804400008024B01461868FFF75D
:103190009FBF00BF0C000020F8B50E461446054640
:1031A00018B183690BB900F0A7F9214B9C422AD1D1
:1031B0006C68A369A360A3891A072ED5236963B33A
:1031C00023692068C01A6369F6B28342374604DC7B
:1031D0002146284600F026F928BBA368013BA360DE
:1031E00023685A1C22601E7063690130834204D038
:1031F000A389DB0719D50A2E17D12146284600F0EE
:1032000011F990B10FE00B4B9C4201D1AC68D0E7B3
:10321000094B9C4208BFEC68CBE72146284600F0EA
:103220000DF80028CCD04FF0FF373846F8BD00BF6E
:10323000244000084440000804400008324B70B5A8
:103240001D6806460C4625B1AB6913B9284600F047
:1032500053F92E4B9C420FD16C68B4F90C309AB2E2
:1032600015072CD4D00611D40922326043F0400354
:10327000A3814FF0FF303EE0254B9C4201D1AC686A
:10328000EBE7244B9C4208BFEC68E6E7510712D5F8
:10329000616B41B104F14403994202D0304600F021
:1032A00019FA00236363A38923F02403A381002375
:1032B000636023692360A38943F00803A381236922
:1032C0004BB9A38903F42073B3F5007F03D02146E3
:1032D000304600F0BFF9A28912F001030CD00023A0
:1032E000A36063695B42A361236953B9B4F90C30ED
:1032F00013F08000BAD170BD920758BF6369A36014
:10330000F2E70020F7E700BF0C000020244000088F
:1033100044400008044000088A892DE9F041054630
:1033200010070C4658D44B68002B05DC0B6C002BA7
:1033300002DC0020BDE8F081E66A002EF9D000230F
:1033400012F480522F68216A2B6032D0606DA389FD
:103350005A0705D56368C01A636B0BB1236CC01A9A
:1033600000230246E66A216A2846B047431CA38927
:1033700006D129681D2948D8294ACA40D60744D50C
:1033800000226260D9042269226004D5421C01D166
:103390002B6803B96065616B2F600029C9D004F107
:1033A0004403994202D0284600F094F9002060635B
:1033B000C0E701232846B047411CC8D12B68002B29
:1033C000C5D01D2B01D0162B01D12F60B1E7A389E9
:1033D00043F04003A381ADE70F69002FA9D0930705
:1033E0000E6808BF4B690F6018BF0023A6EB0708E3
:1033F0008B60B8F1000F9CDD43463A46216AA66A0D
:103400002846B047002806DCA38943F04003A38187
:103410004FF0FF308EE70744A8EB0008E9E700BF54
:103420000100402038B50B6905460C46DBB118B1E8
:1034300083690BB900F060F80C4B9C4209D16C68B1
:10344000B4F90C307BB121462846BDE83840FFF77F
:1034500063BF074B9C4201D1AC68F1E7054B9C422E
:1034600008BFEC68ECE7002038BD00BF244000082E
:103470004440000804400008002310B50446C0E999
:103480000033836081814366C281C0E90433836174
:10349000194608225C30FFF7FBFD054B6362054BC4
:1034A000A362054BE362054B2462236310BD00BF9A
:1034B000D53D0008F73D00082F3E0008533E0008A8
:1034C000014900F085B800BF2534000870B54A1ED8
:1034D000682555430E4605F1740100F049F904468C
:1034E00040B10021C0E900160C30A06005F168026F
:1034F000FFF7CEFD204670BD836910B5044633BB8F
:10350000C0E912330365124B124A1B68826298426B
:1035100004BF0123836100F01FF86060204600F0C3
:103520001BF8A060204600F017F80022E06004219C
:103530006068FFF7A1FF01220921A068FFF79CFF47
:1035400002221221E068FFF797FF0123A36110BD5B
:1035500000400008C1340008F8B51B4B1E68B36971
:10356000074613B93046FFF7C7FF4836D6E901349E
:10357000013B03D5336833B13668F7E7B4F90C5033
:103580006DB16834F4E704213846FFF79FFF3060DF
:103590000028F1D10C233B6004462046F8BD0B4BBC
:1035A0006566C4E90055A560C4E90335C4E905555D
:1035B0000822294604F15C00FFF76AFDC4E90D55B5
:1035C000C4E91255E9E700BF004000080100FFFF11
:1035D0002DE9F8438046894600F14804002614B9D5
:1035E0003046BDE8F883D4E90175013F01D5246870
:1035F000F5E7AB89012B07D9B5F90E30013303D0BC
:1036000029464046C84706436835EEE770B50E4682
:10361000B1F90E10002996B014461D4607DA0023B2
:103620002B60B3891A0610D44FF480630EE06A460B
:1036300000F036FC0028F2DB019A02F47042A2F599
:1036400000535A425A412A60EEE74023002023608B
:1036500016B070BD8B8973B59D0706460C4607D51D
:1036600004F14703236023610123636102B070BD4D
:1036700001AB6A46FFF7CAFF00990546304600F0E5
:1036800077F848B9B4F90C309A05EFD423F0030366
:1036900043F00203A381E3E70D4BB362A3892060EB
:1036A00043F08003A381009B6361019B20615BB1B8
:1036B000B4F90E10304600F005FC28B1A38923F0C0
:1036C000030343F00103A381A3891D43A581CDE733
:1036D000C134000838B50546002945D051F8043CEE
:1036E0000C1F002BB8BFE41800F00EFC1F4A136833
:1036F000104633B9636014602846BDE8384000F0D6
:1037000004BCA3420CD921686218934204BF1A6812
:103710005B68636004BF521822600460ECE71346E4
:103720005A680AB1A242FAD919685818A0420BD1B6
:1037300020680144581882421960DDD1106852682F
:103740005A6001441960D7E702D90C232B60D3E7F4
:10375000206821188A4204BF11685268626004BF61
:10376000091821605C60C7E738BD00BF8C000020ED
:1037700070B5CD1C25F0030508350C2D38BF0C2580
:10378000002D064601DBA94203D90C23336000203B
:1037900070BD00F0B9FB214A1468214691B9204C54
:1037A00023681BB9304600F005FB206029463046EF
:1037B00000F000FB431C24D10C233360304600F0A2
:1037C000A4FBE4E70B685B1B18D40B2B0FD90B6031
:1037D000CD50CC18304600F098FB04F10B00231DAF
:1037E00020F00700C31AD3D05A42E250D0E78C42EF
:1037F0004B6816BF636013600C46EBE70C464968E4
:10380000CCE7C41C24F00304A04205D0211A3046A2
:1038100000F0D0FA0130CFD02560DBE78C0000202B
:10382000900000209368013B002B10B4936008DAED
:103830009469A34201DB0A2903D15DF8044BFFF729
:10384000ABBC1368581C1060197008465DF8044B37
:103850007047F8B506460F461446D518AC4201D15C
:10386000002007E03A4614F8011B3046FFF7DAFF64
:10387000431CF3D1F8BD00002DE9F04F0C469DB07C
:1038800017461D46064618B183690BB9FFF734FE8B
:103890007C4B9C4258D17468A38918075ED5236974
:1038A000002B5BD00023099320238DF8293030238F
:1038B0008DF82A3003954FF0010BB846454615F8B0
:1038C000013B0BB1252B54D1B8EB070A0BD0534663
:1038D0003A4621463046FFF7BCFF013000F0C28077
:1038E000099B5344099398F80030002B00F0BA80EC
:1038F00000234FF0FF32CDE90523049307938DF8A1
:1039000053301A93A846052218F8011B5E48FCF7AD
:103910006FFC049B78BBD90644BF20228DF853204E
:103920001A0744BF2B228DF853202A782A2A2AD03E
:10393000079AA84600200A25414611F8013B303B72
:10394000092B69D960B324E0504B9C4201D1B46883
:10395000A2E74F4B9C4208BFF4689DE721463046E2
:10396000FFF76CFC00289DD04FF0FF301DB0BDE884
:10397000F08FA846A2E7444A801A0BFA00F01843D9
:1039800004904546BEE7039A111D12680391002A70
:1039900001DB079204E0524243F0020307920493D2
:1039A00098F800302E2B0ED198F801302A2B38D100
:1039B000039B1A1D1B680392002BB8BF4FF0FF3307
:1039C00008F102080593334D98F8001003222846A9
:1039D000FCF70EFC40B14023401B03FA00F0049BAF
:1039E000034308F10108049398F800102A488DF861
:1039F0002810062208F10107FCF7FAFB002837D04F
:103A0000264B1BBB039B073323F0070308330393A9
:103A1000099B4B44099350E705FB0232012088467D
:103A20008AE7002308F10108059319460A25404654
:103A300010F8012B303A092A03D9002BC3D0059185
:103A4000C1E705FB012101238046F0E703AB0093AA
:103A50002246134B04A93046AFF30080B0F1FF3F7C
:103A60008146D5D1A3895B063FF57EAF09987DE7F6
:103A700003AB009322460A4B04A9304600F088F8B5
:103A8000ECE700BF24400008644000084440000800
:103A9000044000086A4000086E4000080000000072
:103AA000533800082DE9F04791461F468A680B6994
:103AB000DDF820809342B8BF1346C9F8003091F872
:103AC000432006460C4612B10133C9F80030236882
:103AD000990642BFD9F800300233C9F80030256892
:103AE00015F0060507D104F1190AE368D9F800209A
:103AF0009B1AAB4228DC94F843302268003318BF8D
:103B0000012392062DD404F1430239463046C047C2
:103B1000013020D02368E568D9F8002003F00603BF
:103B2000042B08BFAD1AA36822690CBF25EAE5750E
:103B300000259342C4BF9B1AED184FF000091A34B8
:103B40004D451AD1002008E001235246394630463F
:103B5000C047013003D14FF0FF30BDE8F087013599
:103B6000C3E7E1185A1C302081F84300224494F83E
:103B7000451082F843100233C5E701232246394637
:103B80003046C0470130E6D009F10109D8E700000E
:103B90002DE9F04301F1430C0C46097E85B06E29F6
:103BA0001746064698460C9A00F0B38022D863293F
:103BB00036D00AD8002900F0B980582900F0838057
:103BC00004F1420584F8421032E0642901D06929E9
:103BD000F6D120681368050603F104012AD51B6895
:103BE0001160002B03DA2D225B4284F843206F48DA
:103BF0000A2239E0732900F09D8008D86F2920D06F
:103C00007029DDD1236843F02003236003E0752988
:103C100017D07829D4D1782384F84530644855E00A
:103C20001368191D1B68116004F1420584F84230C5
:103C300001238CE01B68116010F0400F18BF1BB20D
:103C4000CFE713682568181D1060280601D51B688A
:103C500002E06806FBD51B8854486F2914BF0A226E
:103C60000822002184F843106568A560002DC0F289
:103C70009580216821F004012160002B3DD1002DA9
:103C800040F08E806546082A0BD12368DB0708D5F3
:103C9000236962689A42DEBF302305F8013C05F1D2
:103CA000FF35ACEB05032361CDF800803B4603AA4A
:103CB00021463046FFF7F6FE01304DD14FF0FF3080
:103CC00005B0BDE8F083394884F8451013682168D1
:103CD0001D1D1B6815600A060BD5CA0744BF41F0BD
:103CE000200121601BB9226822F0200222601022EC
:103CF000B7E74D0648BF9BB2EFE76546B3FBF2F16D
:103D000002FB1133C35C05F8013D0B460029F5D1D8
:103D1000B9E7136825686169181D106028061B68DB
:103D200001D5196002E06A06FBD5198000232361E2
:103D30006546B9E71368191D11601D6862680021A6
:103D40002846FCF755FA08B1401B606063682361A0
:103D5000002384F84330A7E723692A4639463046D2
:103D6000C0470130AAD023689B0713D4E068039BA7
:103D70009842B8BF1846A3E701234A463946304661
:103D8000C04701309AD00135E368039A9B1AAB42D1
:103D9000F2DCEBE7002504F11909F5E7002BACD1C3
:103DA000037884F8423004F142056CE7754000085E
:103DB0008640000838B5064C0023054608462360B7
:103DC00000F0DEF8431C02D1236803B12B6038BD3C
:103DD0003001002010B50C46B1F90E1000F096F835
:103DE0000028ABBF636DA3891B1823F48053ACBFBD
:103DF0006365A38110BD2DE9F0411F468B89DB056A
:103E000005460C46164605D502230022B1F90E10D0
:103E100000F068F8A389B4F90E1023F48053A3814D
:103E200032463B462846BDE8F04100F017B810B5D1
:103E30000C46B1F90E1000F055F8431CA38915BFCC
:103E4000606523F4805343F48053A38118BFA3819A
:103E500010BDB1F90E1000F013B8000038B5074CD2
:103E6000054608461146002222601A46FDF79AF9D7
:103E7000431C02D1236803B12B6038BD3001002000
:103E800038B5064C002305460846236000F050F87C
:103E9000431C02D1236803B12B6038BD30010020E0
:103EA00038B5074C0023054608461146236000F04C
:103EB00047F8431C02D1236803B12B6038BD00BF13
:103EC0003001002038B5064C002305460846236023
:103ED00000F03EF8431C02D1236803B12B6038BDCB
:103EE0003001002038B5074C05460846114600222F
:103EF00022601A4600F034F8431C02D1236803B153
:103F00002B6038BD300100207047704738B5074C32
:103F1000054608461146002222601A4600F028F89D
:103F2000431C02D1236803B12B6038BD300100204F
:103F3000024B58221A604FF0FF30704730010020CA
:103F4000024B58221A604FF0FF30704730010020BA
:103F5000024B58221A600020704700BF3001002039
:103F6000024B58221A604FF0FF307047300100209A
:103F7000024B58221A604FF0FF307047300100208A
:103F8000044A05491368002B08BF0B46184410600B
:103F9000184670479400002038010020F8B500BF93
:103FA000F8BC08BC9E467047F8B500BFF8BC08BC1A
:043FB0009E46704772
:103FB4000D000000730D0A00650D0A0054656D7054
:103FC40065726174757265203D2020002D2D2D2DA4
:103FD4002D2D2D2D2D0D000025642E256425642501
:103FE400640A000000000000000000000102030455
:103FF4000607080900000000010203041000002065
:1040040000000000000000000000000000000000AC
:10401400000000000000000000000000000000009C
:10402400000000000000000000000000000000008C
:10403400000000000000000000000000000000007C
:10404400000000000000000000000000000000006C
:10405400000000000000000000000000000000005C
:10406400232D302B2000686C4C006566674546475D
:1040740000303132333435363738394142434445E0
:10408400460030313233343536373839616263644F
:04409400656600005D
:0840980064CAFF7F0100000073
:0440A000D50100083E
:0440A400B10100085E
:1040A80001000000100000000024F40010000020AF
:1040B80000000000244000084440000804400008B4
:1040C80000000000000000000000000000000000E8
:1040D80000000000000000000000000000000000D8
:1040E80000000000000000000000000000000000C8
:1040F80000000000000000000000000000000000B8
:1041080000000000000000000000000000000000A7
:0400000508002FF5CB
:00000001FF
